{
  "contractName": "CredentialsContract",
  "abi": [
    {
      "inputs": [
        {
          "internalType": "string",
          "name": "_id",
          "type": "string"
        },
        {
          "internalType": "string",
          "name": "_name",
          "type": "string"
        },
        {
          "internalType": "string",
          "name": "_institution_id",
          "type": "string"
        },
        {
          "internalType": "string",
          "name": "_author",
          "type": "string"
        },
        {
          "internalType": "string",
          "name": "_metadata",
          "type": "string"
        },
        {
          "internalType": "string",
          "name": "_event_id",
          "type": "string"
        }
      ],
      "name": "addCredential",
      "outputs": [],
      "stateMutability": "nonpayable",
      "type": "function"
    },
    {
      "inputs": [
        {
          "internalType": "string",
          "name": "_id",
          "type": "string"
        },
        {
          "internalType": "string",
          "name": "_name",
          "type": "string"
        },
        {
          "internalType": "string",
          "name": "_institution_id",
          "type": "string"
        },
        {
          "internalType": "string",
          "name": "_author",
          "type": "string"
        },
        {
          "internalType": "string",
          "name": "_metadata",
          "type": "string"
        },
        {
          "internalType": "string",
          "name": "_event_id",
          "type": "string"
        }
      ],
      "name": "editCredential",
      "outputs": [],
      "stateMutability": "nonpayable",
      "type": "function"
    },
    {
      "inputs": [
        {
          "internalType": "string",
          "name": "_id",
          "type": "string"
        }
      ],
      "name": "removeCredential",
      "outputs": [],
      "stateMutability": "nonpayable",
      "type": "function"
    }
  ],
  "bytecode": "0x608060405234801561000f575f80fd5b506109198061001d5f395ff3fe608060405234801561000f575f80fd5b506004361061003f575f3560e01c80631aa00bf414610043578063486dde5b1461005f57806377d9c3031461007b575b5f80fd5b61005d60048036038101906100589190610417565b610097565b005b61007960048036038101906100749190610548565b610173565b005b61009560048036038101906100909190610417565b6101ef565b005b5f6040518060c00160405280888152602001878152602001868152602001858152602001848152602001838152509050805f886040516100d791906105fb565b90815260200160405180910390205f820151815f0190816100f89190610814565b50602082015181600101908161010e9190610814565b5060408201518160020190816101249190610814565b50606082015181600301908161013a9190610814565b5060808201518160040190816101509190610814565b5060a08201518160050190816101669190610814565b5090505050505050505050565b5f8160405161018291906105fb565b90815260200160405180910390205f8082015f61019f9190610272565b600182015f6101ae9190610272565b600282015f6101bd9190610272565b600382015f6101cc9190610272565b600482015f6101db9190610272565b600582015f6101ea9190610272565b505050565b5f80876040516101ff91906105fb565b90815260200160405180910390209050858160010190816102209190610814565b50848160020190816102329190610814565b50838160030190816102449190610814565b50828160040190816102569190610814565b50818160050190816102689190610814565b5050505050505050565b50805461027e9061063e565b5f825580601f1061028f57506102ac565b601f0160209004905f5260205f20908101906102ab91906102af565b5b50565b5b808211156102c6575f815f9055506001016102b0565b5090565b5f604051905090565b5f80fd5b5f80fd5b5f80fd5b5f80fd5b5f601f19601f8301169050919050565b7f4e487b71000000000000000000000000000000000000000000000000000000005f52604160045260245ffd5b610329826102e3565b810181811067ffffffffffffffff82111715610348576103476102f3565b5b80604052505050565b5f61035a6102ca565b90506103668282610320565b919050565b5f67ffffffffffffffff821115610385576103846102f3565b5b61038e826102e3565b9050602081019050919050565b828183375f83830152505050565b5f6103bb6103b68461036b565b610351565b9050828152602081018484840111156103d7576103d66102df565b5b6103e284828561039b565b509392505050565b5f82601f8301126103fe576103fd6102db565b5b813561040e8482602086016103a9565b91505092915050565b5f805f805f8060c08789031215610431576104306102d3565b5b5f87013567ffffffffffffffff81111561044e5761044d6102d7565b5b61045a89828a016103ea565b965050602087013567ffffffffffffffff81111561047b5761047a6102d7565b5b61048789828a016103ea565b955050604087013567ffffffffffffffff8111156104a8576104a76102d7565b5b6104b489828a016103ea565b945050606087013567ffffffffffffffff8111156104d5576104d46102d7565b5b6104e189828a016103ea565b935050608087013567ffffffffffffffff811115610502576105016102d7565b5b61050e89828a016103ea565b92505060a087013567ffffffffffffffff81111561052f5761052e6102d7565b5b61053b89828a016103ea565b9150509295509295509295565b5f6020828403121561055d5761055c6102d3565b5b5f82013567ffffffffffffffff81111561057a576105796102d7565b5b610586848285016103ea565b91505092915050565b5f81519050919050565b5f81905092915050565b5f5b838110156105c05780820151818401526020810190506105a5565b5f8484015250505050565b5f6105d58261058f565b6105df8185610599565b93506105ef8185602086016105a3565b80840191505092915050565b5f61060682846105cb565b915081905092915050565b7f4e487b71000000000000000000000000000000000000000000000000000000005f52602260045260245ffd5b5f600282049050600182168061065557607f821691505b60208210810361066857610667610611565b5b50919050565b5f819050815f5260205f209050919050565b5f6020601f8301049050919050565b5f82821b905092915050565b5f600883026106ca7fffffffffffffffffffffffffffffffffffffffffffffffffffffffffffffffff8261068f565b6106d4868361068f565b95508019841693508086168417925050509392505050565b5f819050919050565b5f819050919050565b5f61071861071361070e846106ec565b6106f5565b6106ec565b9050919050565b5f819050919050565b610731836106fe565b61074561073d8261071f565b84845461069b565b825550505050565b5f90565b61075961074d565b610764818484610728565b505050565b5b818110156107875761077c5f82610751565b60018101905061076a565b5050565b601f8211156107cc5761079d8161066e565b6107a684610680565b810160208510156107b5578190505b6107c96107c185610680565b830182610769565b50505b505050565b5f82821c905092915050565b5f6107ec5f19846008026107d1565b1980831691505092915050565b5f61080483836107dd565b9150826002028217905092915050565b61081d8261058f565b67ffffffffffffffff811115610836576108356102f3565b5b610840825461063e565b61084b82828561078b565b5f60209050601f83116001811461087c575f841561086a578287015190505b61087485826107f9565b8655506108db565b601f19841661088a8661066e565b5f5b828110156108b15784890151825560018201915060208501945060208101905061088c565b868310156108ce57848901516108ca601f8916826107dd565b8355505b6001600288020188555050505b50505050505056fea2646970667358221220402a1ab1b5f27679e8aaaefc8638482790f2fdd431747c6d46d55d887d4188ec64736f6c63430008140033",
  "immutableReferences": {},
  "source": "// SPDX-License-Identifier: MIT\npragma solidity ^0.8.0;\n\ncontract CredentialsContract {\n    struct Credential {\n        string id;\n        string name;\n        string institution_id;\n        string author;\n        string metadata;\n        string event_id; // Novo atributo adicionado\n    }\n\n    mapping(string => Credential) credentials;\n\n    function addCredential(string memory _id, string memory _name, string memory _institution_id, string memory _author, string memory _metadata, string memory _event_id) public {\n        Credential memory newCredential = Credential(_id, _name, _institution_id, _author, _metadata, _event_id);\n        credentials[_id] = newCredential;\n    }\n\n    function editCredential(string memory _id, string memory _name, string memory _institution_id, string memory _author, string memory _metadata, string memory _event_id) public {\n        Credential storage credential = credentials[_id];\n        credential.name = _name;\n        credential.institution_id = _institution_id;\n        credential.author = _author;\n        credential.metadata = _metadata;\n        credential.event_id = _event_id; // Atualiza o event_id\n    }\n\n    function removeCredential(string memory _id) public {\n        delete credentials[_id];\n    }\n}\n",
  "sourcePath": "/home/gabrielras/Documentos/tcc-blockchain/ethereum-contracts/contracts/CredentialsContract.sol",
  "compiler": {
    "name": "solc",
    "version": "0.8.20+commit.a1b79de6.Emscripten.clang"
  },
  "schemaVersion": "3.4.14",
  "updatedAt": "2024-03-17T18:06:06.063Z",
  "devdoc": {
    "kind": "dev",
    "methods": {},
    "version": 1
  },
  "userdoc": {
    "kind": "user",
    "methods": {},
    "version": 1
  }
}