{
  "contractName": "SafeCredentialsContract",
  "abi": [
    {
      "inputs": [
        {
          "internalType": "string[]",
          "name": "_ids",
          "type": "string[]"
        },
        {
          "internalType": "string[]",
          "name": "_names",
          "type": "string[]"
        },
        {
          "internalType": "string[]",
          "name": "_institution_ids",
          "type": "string[]"
        },
        {
          "internalType": "string[]",
          "name": "_authors",
          "type": "string[]"
        },
        {
          "internalType": "string[]",
          "name": "_metadata",
          "type": "string[]"
        },
        {
          "internalType": "string[]",
          "name": "_event_ids",
          "type": "string[]"
        }
      ],
      "name": "addCredentials",
      "outputs": [],
      "stateMutability": "nonpayable",
      "type": "function"
    },
    {
      "inputs": [
        {
          "internalType": "string[]",
          "name": "_ids",
          "type": "string[]"
        },
        {
          "internalType": "string[]",
          "name": "_names",
          "type": "string[]"
        },
        {
          "internalType": "string[]",
          "name": "_institution_ids",
          "type": "string[]"
        },
        {
          "internalType": "string[]",
          "name": "_authors",
          "type": "string[]"
        },
        {
          "internalType": "string[]",
          "name": "_metadata",
          "type": "string[]"
        },
        {
          "internalType": "string[]",
          "name": "_event_ids",
          "type": "string[]"
        }
      ],
      "name": "editCredentials",
      "outputs": [],
      "stateMutability": "nonpayable",
      "type": "function"
    },
    {
      "inputs": [
        {
          "internalType": "string[]",
          "name": "_ids",
          "type": "string[]"
        }
      ],
      "name": "removeCredentials",
      "outputs": [],
      "stateMutability": "nonpayable",
      "type": "function"
    }
  ],
  "bytecode": "0x608060405234801561000f575f80fd5b50610dc88061001d5f395ff3fe608060405234801561000f575f80fd5b506004361061003f575f3560e01c8063111c4fd014610043578063158150751461005f578063a611876a1461007b575b5f80fd5b61005d600480360381019061005891906107ad565b610097565b005b610079600480360381019061007491906107ad565b6102bb565b005b610095600480360381019061009091906108de565b610471565b005b845186511480156100a9575083518651145b80156100b6575082518651145b80156100c3575081518651145b80156100d0575080518651145b61010f576040517f08c379a00000000000000000000000000000000000000000000000000000000081526004016101069061097f565b60405180910390fd5b5f5b86518110156102b2576040518060c001604052808883815181106101385761013761099d565b5b602002602001015181526020018783815181106101585761015761099d565b5b602002602001015181526020018683815181106101785761017761099d565b5b602002602001015181526020018583815181106101985761019761099d565b5b602002602001015181526020018483815181106101b8576101b761099d565b5b602002602001015181526020018383815181106101d8576101d761099d565b5b60200260200101518152505f8883815181106101f7576101f661099d565b5b602002602001015160405161020c9190610a36565b90815260200160405180910390205f820151815f01908161022d9190610c4f565b5060208201518160010190816102439190610c4f565b5060408201518160020190816102599190610c4f565b50606082015181600301908161026f9190610c4f565b5060808201518160040190816102859190610c4f565b5060a082015181600501908161029b9190610c4f565b5090505080806102aa90610d4b565b915050610111565b50505050505050565b845186511480156102cd575083518651145b80156102da575082518651145b80156102e7575081518651145b80156102f4575080518651145b610333576040517f08c379a000000000000000000000000000000000000000000000000000000000815260040161032a9061097f565b60405180910390fd5b5f5b8651811015610468575f808883815181106103535761035261099d565b5b60200260200101516040516103689190610a36565b9081526020016040518091039020905086828151811061038b5761038a61099d565b5b60200260200101518160010190816103a39190610c4f565b508582815181106103b7576103b661099d565b5b60200260200101518160020190816103cf9190610c4f565b508482815181106103e3576103e261099d565b5b60200260200101518160030190816103fb9190610c4f565b5083828151811061040f5761040e61099d565b5b60200260200101518160040190816104279190610c4f565b5082828151811061043b5761043a61099d565b5b60200260200101518160050190816104539190610c4f565b5050808061046090610d4b565b915050610335565b50505050505050565b5f5b8151811015610522575f8282815181106104905761048f61099d565b5b60200260200101516040516104a59190610a36565b90815260200160405180910390205f8082015f6104c29190610526565b600182015f6104d19190610526565b600282015f6104e09190610526565b600382015f6104ef9190610526565b600482015f6104fe9190610526565b600582015f61050d9190610526565b5050808061051a90610d4b565b915050610473565b5050565b50805461053290610a79565b5f825580601f106105435750610560565b601f0160209004905f5260205f209081019061055f9190610563565b5b50565b5b8082111561057a575f815f905550600101610564565b5090565b5f604051905090565b5f80fd5b5f80fd5b5f80fd5b5f601f19601f8301169050919050565b7f4e487b71000000000000000000000000000000000000000000000000000000005f52604160045260245ffd5b6105d982610593565b810181811067ffffffffffffffff821117156105f8576105f76105a3565b5b80604052505050565b5f61060a61057e565b905061061682826105d0565b919050565b5f67ffffffffffffffff821115610635576106346105a3565b5b602082029050602081019050919050565b5f80fd5b5f80fd5b5f67ffffffffffffffff821115610668576106676105a3565b5b61067182610593565b9050602081019050919050565b828183375f83830152505050565b5f61069e6106998461064e565b610601565b9050828152602081018484840111156106ba576106b961064a565b5b6106c584828561067e565b509392505050565b5f82601f8301126106e1576106e061058f565b5b81356106f184826020860161068c565b91505092915050565b5f61070c6107078461061b565b610601565b9050808382526020820190506020840283018581111561072f5761072e610646565b5b835b8181101561077657803567ffffffffffffffff8111156107545761075361058f565b5b80860161076189826106cd565b85526020850194505050602081019050610731565b5050509392505050565b5f82601f8301126107945761079361058f565b5b81356107a48482602086016106fa565b91505092915050565b5f805f805f8060c087890312156107c7576107c6610587565b5b5f87013567ffffffffffffffff8111156107e4576107e361058b565b5b6107f089828a01610780565b965050602087013567ffffffffffffffff8111156108115761081061058b565b5b61081d89828a01610780565b955050604087013567ffffffffffffffff81111561083e5761083d61058b565b5b61084a89828a01610780565b945050606087013567ffffffffffffffff81111561086b5761086a61058b565b5b61087789828a01610780565b935050608087013567ffffffffffffffff8111156108985761089761058b565b5b6108a489828a01610780565b92505060a087013567ffffffffffffffff8111156108c5576108c461058b565b5b6108d189828a01610780565b9150509295509295509295565b5f602082840312156108f3576108f2610587565b5b5f82013567ffffffffffffffff8111156109105761090f61058b565b5b61091c84828501610780565b91505092915050565b5f82825260208201905092915050565b7f417272617973206c656e677468206d69736d61746368000000000000000000005f82015250565b5f610969601683610925565b915061097482610935565b602082019050919050565b5f6020820190508181035f8301526109968161095d565b9050919050565b7f4e487b71000000000000000000000000000000000000000000000000000000005f52603260045260245ffd5b5f81519050919050565b5f81905092915050565b5f5b838110156109fb5780820151818401526020810190506109e0565b5f8484015250505050565b5f610a10826109ca565b610a1a81856109d4565b9350610a2a8185602086016109de565b80840191505092915050565b5f610a418284610a06565b915081905092915050565b7f4e487b71000000000000000000000000000000000000000000000000000000005f52602260045260245ffd5b5f6002820490506001821680610a9057607f821691505b602082108103610aa357610aa2610a4c565b5b50919050565b5f819050815f5260205f209050919050565b5f6020601f8301049050919050565b5f82821b905092915050565b5f60088302610b057fffffffffffffffffffffffffffffffffffffffffffffffffffffffffffffffff82610aca565b610b0f8683610aca565b95508019841693508086168417925050509392505050565b5f819050919050565b5f819050919050565b5f610b53610b4e610b4984610b27565b610b30565b610b27565b9050919050565b5f819050919050565b610b6c83610b39565b610b80610b7882610b5a565b848454610ad6565b825550505050565b5f90565b610b94610b88565b610b9f818484610b63565b505050565b5b81811015610bc257610bb75f82610b8c565b600181019050610ba5565b5050565b601f821115610c0757610bd881610aa9565b610be184610abb565b81016020851015610bf0578190505b610c04610bfc85610abb565b830182610ba4565b50505b505050565b5f82821c905092915050565b5f610c275f1984600802610c0c565b1980831691505092915050565b5f610c3f8383610c18565b9150826002028217905092915050565b610c58826109ca565b67ffffffffffffffff811115610c7157610c706105a3565b5b610c7b8254610a79565b610c86828285610bc6565b5f60209050601f831160018114610cb7575f8415610ca5578287015190505b610caf8582610c34565b865550610d16565b601f198416610cc586610aa9565b5f5b82811015610cec57848901518255600182019150602085019450602081019050610cc7565b86831015610d095784890151610d05601f891682610c18565b8355505b6001600288020188555050505b505050505050565b7f4e487b71000000000000000000000000000000000000000000000000000000005f52601160045260245ffd5b5f610d5582610b27565b91507fffffffffffffffffffffffffffffffffffffffffffffffffffffffffffffffff8203610d8757610d86610d1e565b5b60018201905091905056fea26469706673582212205b3d4aa1f50d8108a741e4f7367d9586185e295dc95f1e56e34c613ee7bad0fa64736f6c63430008140033",
  "immutableReferences": {},
  "source": "// SPDX-License-Identifier: MIT\npragma solidity ^0.8.0;\n\ncontract SafeCredentialsContract {\n    struct Credential {\n        string id;\n        string name;\n        string institution_id;\n        string author;\n        string metadata;\n        string event_id;\n    }\n\n    mapping(string => Credential) credentials;\n\n    function addCredentials(string[] memory _ids, string[] memory _names, string[] memory _institution_ids, string[] memory _authors, string[] memory _metadata, string[] memory _event_ids) public {\n        require(_ids.length == _names.length && _ids.length == _institution_ids.length && _ids.length == _authors.length && _ids.length == _metadata.length && _ids.length == _event_ids.length, \"Arrays length mismatch\");\n        \n        for(uint i = 0; i < _ids.length; i++) {\n            credentials[_ids[i]] = Credential(_ids[i], _names[i], _institution_ids[i], _authors[i], _metadata[i], _event_ids[i]);\n        }\n    }\n\n    function editCredentials(string[] memory _ids, string[] memory _names, string[] memory _institution_ids, string[] memory _authors, string[] memory _metadata, string[] memory _event_ids) public {\n        require(_ids.length == _names.length && _ids.length == _institution_ids.length && _ids.length == _authors.length && _ids.length == _metadata.length && _ids.length == _event_ids.length, \"Arrays length mismatch\");\n\n        for(uint i = 0; i < _ids.length; i++) {\n            Credential storage credential = credentials[_ids[i]];\n            credential.name = _names[i];\n            credential.institution_id = _institution_ids[i];\n            credential.author = _authors[i];\n            credential.metadata = _metadata[i];\n            credential.event_id = _event_ids[i]; // Atualiza o event_id\n        }\n    }\n\n    function removeCredentials(string[] memory _ids) public {\n        for(uint i = 0; i < _ids.length; i++) {\n            delete credentials[_ids[i]];\n        }\n    }\n}\n",
  "sourcePath": "/home/gabrielras/Documentos/tcc-blockchain/ethereum-contracts/contracts/SafeCredentialsContract.sol",
  "compiler": {
    "name": "solc",
    "version": "0.8.20+commit.a1b79de6.Emscripten.clang"
  },
  "schemaVersion": "3.4.14",
  "updatedAt": "2024-03-17T20:11:57.582Z",
  "devdoc": {
    "kind": "dev",
    "methods": {},
    "version": 1
  },
  "userdoc": {
    "kind": "user",
    "methods": {},
    "version": 1
  }
}